{
  "contractName": "HTLC",
  "abi": [
    {
      "inputs": [
        {
          "internalType": "address",
          "name": "_recipient",
          "type": "address"
        },
        {
          "internalType": "address",
          "name": "_token",
          "type": "address"
        },
        {
          "internalType": "uint256",
          "name": "_amount",
          "type": "uint256"
        },
        {
          "internalType": "bytes32",
          "name": "_hash",
          "type": "bytes32"
        },
        {
          "internalType": "uint256",
          "name": "_lockTime",
          "type": "uint256"
        }
      ],
      "payable": false,
      "stateMutability": "nonpayable",
      "type": "constructor"
    },
    {
      "constant": true,
      "inputs": [],
      "name": "amount",
      "outputs": [
        {
          "internalType": "uint256",
          "name": "",
          "type": "uint256"
        }
      ],
      "payable": false,
      "stateMutability": "view",
      "type": "function"
    },
    {
      "constant": true,
      "inputs": [],
      "name": "finished",
      "outputs": [
        {
          "internalType": "bool",
          "name": "",
          "type": "bool"
        }
      ],
      "payable": false,
      "stateMutability": "view",
      "type": "function"
    },
    {
      "constant": true,
      "inputs": [],
      "name": "hash",
      "outputs": [
        {
          "internalType": "bytes32",
          "name": "",
          "type": "bytes32"
        }
      ],
      "payable": false,
      "stateMutability": "view",
      "type": "function"
    },
    {
      "constant": true,
      "inputs": [],
      "name": "lockTime",
      "outputs": [
        {
          "internalType": "uint256",
          "name": "",
          "type": "uint256"
        }
      ],
      "payable": false,
      "stateMutability": "view",
      "type": "function"
    },
    {
      "constant": true,
      "inputs": [],
      "name": "owner",
      "outputs": [
        {
          "internalType": "address",
          "name": "",
          "type": "address"
        }
      ],
      "payable": false,
      "stateMutability": "view",
      "type": "function"
    },
    {
      "constant": true,
      "inputs": [],
      "name": "recipient",
      "outputs": [
        {
          "internalType": "address",
          "name": "",
          "type": "address"
        }
      ],
      "payable": false,
      "stateMutability": "view",
      "type": "function"
    },
    {
      "constant": true,
      "inputs": [],
      "name": "secret",
      "outputs": [
        {
          "internalType": "bytes32",
          "name": "",
          "type": "bytes32"
        }
      ],
      "payable": false,
      "stateMutability": "view",
      "type": "function"
    },
    {
      "constant": true,
      "inputs": [],
      "name": "startTime",
      "outputs": [
        {
          "internalType": "uint256",
          "name": "",
          "type": "uint256"
        }
      ],
      "payable": false,
      "stateMutability": "view",
      "type": "function"
    },
    {
      "constant": true,
      "inputs": [],
      "name": "token",
      "outputs": [
        {
          "internalType": "contract IERC20",
          "name": "",
          "type": "address"
        }
      ],
      "payable": false,
      "stateMutability": "view",
      "type": "function"
    },
    {
      "constant": false,
      "inputs": [
        {
          "internalType": "bytes32",
          "name": "_secret",
          "type": "bytes32"
        }
      ],
      "name": "withdraw",
      "outputs": [],
      "payable": false,
      "stateMutability": "nonpayable",
      "type": "function"
    },
    {
      "constant": false,
      "inputs": [],
      "name": "refund",
      "outputs": [],
      "payable": false,
      "stateMutability": "nonpayable",
      "type": "function"
    }
  ],
  "bytecode": "0x608060405234801561001057600080fd5b50604051610bb3380380610bb3833981810160405260a081101561003357600080fd5b81019080805190602001909291908051906020019092919080519060200190929190805190602001909291908051906020019092919050505084600460006101000a81548173ffffffffffffffffffffffffffffffffffffffff021916908373ffffffffffffffffffffffffffffffffffffffff16021790555033600560006101000a81548173ffffffffffffffffffffffffffffffffffffffff021916908373ffffffffffffffffffffffffffffffffffffffff1602179055508260068190555083600760006101000a81548173ffffffffffffffffffffffffffffffffffffffff021916908373ffffffffffffffffffffffffffffffffffffffff1602179055508160038190555042600081905550806001819055506000600760146101000a81548160ff0219169083151502179055505050505050610a398061017a6000396000f3fe608060405234801561001057600080fd5b50600436106100a95760003560e01c80638da5cb5b116100715780638da5cb5b1461015c5780638e19899e146101a6578063aa8c217c146101d4578063bef4876b146101f2578063d1efd30d14610214578063fc0c546a14610232576100a9565b806309bd5a60146100ae5780630d668087146100cc578063590e1ae3146100ea57806366d003ac146100f457806378e979251461013e575b600080fd5b6100b661027c565b6040518082815260200191505060405180910390f35b6100d4610282565b6040518082815260200191505060405180910390f35b6100f2610288565b005b6100fc6104b3565b604051808273ffffffffffffffffffffffffffffffffffffffff1673ffffffffffffffffffffffffffffffffffffffff16815260200191505060405180910390f35b6101466104d9565b6040518082815260200191505060405180910390f35b6101646104df565b604051808273ffffffffffffffffffffffffffffffffffffffff1673ffffffffffffffffffffffffffffffffffffffff16815260200191505060405180910390f35b6101d2600480360360208110156101bc57600080fd5b8101908080359060200190929190505050610505565b005b6101dc61099c565b6040518082815260200191505060405180910390f35b6101fa6109a2565b604051808215151515815260200191505060405180910390f35b61021c6109b5565b6040518082815260200191505060405180910390f35b61023a6109bb565b604051808273ffffffffffffffffffffffffffffffffffffffff1673ffffffffffffffffffffffffffffffffffffffff16815260200191505060405180910390f35b60035481565b60015481565b60001515600760149054906101000a900460ff16151514610311576040517f08c379a00000000000000000000000000000000000000000000000000000000081526004018080602001828103825260118152602001807f5377617020616c726561647920646f6e6500000000000000000000000000000081525060200191505060405180910390fd5b6001546000540142101561038d576040517f08c379a00000000000000000000000000000000000000000000000000000000081526004018080602001828103825260098152602001807f546f6f206561726c79000000000000000000000000000000000000000000000081525060200191505060405180910390fd5b600760009054906101000a900473ffffffffffffffffffffffffffffffffffffffff1673ffffffffffffffffffffffffffffffffffffffff1663a9059cbb600560009054906101000a900473ffffffffffffffffffffffffffffffffffffffff166006546040518363ffffffff1660e01b8152600401808373ffffffffffffffffffffffffffffffffffffffff1673ffffffffffffffffffffffffffffffffffffffff16815260200182815260200192505050602060405180830381600087803b15801561045a57600080fd5b505af115801561046e573d6000803e3d6000fd5b505050506040513d602081101561048457600080fd5b8101908080519060200190929190505050506001600760146101000a81548160ff021916908315150217905550565b600460009054906101000a900473ffffffffffffffffffffffffffffffffffffffff1681565b60005481565b600560009054906101000a900473ffffffffffffffffffffffffffffffffffffffff1681565b60001515600760149054906101000a900460ff1615151461058e576040517f08c379a00000000000000000000000000000000000000000000000000000000081526004018080602001828103825260118152602001807f5377617020616c726561647920646f6e6500000000000000000000000000000081525060200191505060405180910390fd5b600354600282604051602001808281526020019150506040516020818303038152906040526040518082805190602001908083835b602083106105e657805182526020820191506020810190506020830392506105c3565b6001836020036101000a038019825116818451168082178552505050505050905001915050602060405180830381855afa158015610628573d6000803e3d6000fd5b5050506040513d602081101561063d57600080fd5b8101908080519060200190929190505050146106c1576040517f08c379a000000000000000000000000000000000000000000000000000000000815260040180806020018281038252600c8152602001807f57726f6e6720736563726574000000000000000000000000000000000000000081525060200191505060405180910390fd5b6000600760009054906101000a900473ffffffffffffffffffffffffffffffffffffffff1673ffffffffffffffffffffffffffffffffffffffff166370a08231306040518263ffffffff1660e01b8152600401808273ffffffffffffffffffffffffffffffffffffffff1673ffffffffffffffffffffffffffffffffffffffff16815260200191505060206040518083038186803b15801561076257600080fd5b505afa158015610776573d6000803e3d6000fd5b505050506040513d602081101561078c57600080fd5b810190808051906020019092919050505011610810576040517f08c379a00000000000000000000000000000000000000000000000000000000081526004018080602001828103825260108152602001807f4e6f7420656e6f7567682066756e64730000000000000000000000000000000081525060200191505060405180910390fd5b60015460005401421061086e576040517f08c379a00000000000000000000000000000000000000000000000000000000081526004018080602001828103825260238152602001806109e26023913960400191505060405180910390fd5b80600281905550600760009054906101000a900473ffffffffffffffffffffffffffffffffffffffff1673ffffffffffffffffffffffffffffffffffffffff1663a9059cbb600460009054906101000a900473ffffffffffffffffffffffffffffffffffffffff166006546040518363ffffffff1660e01b8152600401808373ffffffffffffffffffffffffffffffffffffffff1673ffffffffffffffffffffffffffffffffffffffff16815260200182815260200192505050602060405180830381600087803b15801561094257600080fd5b505af1158015610956573d6000803e3d6000fd5b505050506040513d602081101561096c57600080fd5b8101908080519060200190929190505050506001600760146101000a81548160ff02191690831515021790555050565b60065481565b600760149054906101000a900460ff1681565b60025481565b600760009054906101000a900473ffffffffffffffffffffffffffffffffffffffff168156fe57697468647261772064656c6179206f757464617465642c2075736520726566756e64a265627a7a723158209bed83c5f3af8e2daba911af63657a7bab2abd83783a5861f59ad09c4ec6856464736f6c63430005100032",
  "source": " pragma solidity ^0.5.0;\n\n import 'openzeppelin-solidity/contracts/token/ERC20/IERC20.sol';\n\n contract HTLC {\n   uint public startTime;\n   uint public lockTime;\n   bytes32 public secret;\n   bytes32 public hash;\n   address public recipient;\n   address public owner;\n   uint256 public amount;\n   IERC20 public token;\n   bool public finished;\n\n   constructor(address _recipient, address _token, uint256 _amount, bytes32 _hash, uint _lockTime) public {\n     recipient = _recipient;\n     owner = msg.sender;\n     amount = _amount;\n     token = IERC20(_token);\n     hash = _hash;\n     startTime = block.timestamp;\n     lockTime = _lockTime;\n     finished = false;\n   }\n\n   function withdraw(bytes32 _secret) public {\n     require(finished == false, 'Swap already done');\n     require(sha256(abi.encodePacked(_secret)) == hash, 'Wrong secret');\n     require(token.balanceOf(address(this)) > 0, 'Not enough funds');\n     require(block.timestamp < startTime + lockTime, 'Withdraw delay outdated, use refund');\n     secret = _secret;\n     token.transfer(recipient, amount);\n     finished = true;\n   }\n\n   function refund() public {\n     require(finished == false, 'Swap already done');\n     require(block.timestamp >= startTime + lockTime, 'Too early');\n     token.transfer(owner, amount);\n     finished = true;\n   }\n }\n",
  "sourcePath": "/home/neylix/Archethic/erc20-atomic-swap/truffle/contracts/HTLC.sol",
  "compiler": {
    "name": "solc",
    "version": "0.5.16+commit.9c3226ce.Emscripten.clang"
  },
  "schemaVersion": "3.4.11",
  "updatedAt": "2023-03-24T13:17:13.304Z",
  "devdoc": {
    "methods": {}
  },
  "userdoc": {
    "methods": {}
  }
}